:020000040800F2
:10000000280600209D010008771F0008571D0008E2
:10001000751F0008090500081327000800000000EC
:100020000000000000000000000000001720000891
:10003000D90500080000000015200008192000085C
:10004000B7010008B7010008B7010008B7010008B0
:10005000B7010008B7010008B7010008B7010008A0
:10006000B7010008B7010008B7010008B701000890
:10007000B701000829050008B7010008B70100080A
:10008000B7010008B7010008B7010008B701000870
:10009000B7010008B7010008B7010008B701000860
:1000A000B7010008B7010008B7010008B701000850
:1000B000BD200008C9200008D5200008B7010008AD
:1000C000B7010008B7010008B7010008B701000830
:1000D000B7010008B7010008B7010008B701000820
:1000E000DB050008B7010008B7010008B7010008E8
:1000F000B7010008B7010008B7010008B701000800
:10010000B7010008B7010008B7010008B7010008EF
:10011000B5230008B7010008B7010008B7010008BF
:10012000B7010008B7010008B7010008B7010008CF
:10013000B7010008B7010008B7010008B7010008BF
:10014000B7010008B7010008B7010008B7010008AF
:10015000B7010008B7010008B7010008B70100089F
:10016000B7010008B7010008B7010008B70100088F
:10017000B7010008B7010008B7010008000000003F
:10018000B7010008B7010008DFF80CD000F0AAF9A9
:10019000004800476D2700082806002006488047D1
:1001A00006480047FEE7FEE7FEE7FEE7FEE7FEE75C
:1001B000FEE7FEE7FEE7FEE7A12000088901000850
:1001C0002DE9F05F0546002092469B46884606468C
:1001D000814640241BE0284641464746224600F01F
:1001E000DDF853465A46C01A914110D311461846BD
:1001F000224600F0C4F82D1A67EB01084F4622464C
:100200000120002100F0BBF817EB00094E41201E31
:10021000A4F10104DFDC484631462A464346BDE8E6
:10022000F09FD2B201E000F8012B491EFBD27047CB
:100230000022F6E710B513460A4604461946FFF7B2
:10024000F0FF204610BD2DE9F04D81EA030404F0D3
:10025000004B21F0004514464FF0000A23F0004106
:1002600050EA050220D054EA01021DD0C5F30A5716
:100270000246C5F31303C1F31300C1F30A5640F459
:10028000801543F48013A7EB0608101BD64608F22E
:10029000FD3873EB050002D308F1010801E0921864
:1002A0005B41B8F1000F03DA00200146BDE8F08D94
:1002B00000204FF48011064684460EE0171B73EBB6
:1002C000050705D3121B63EB050306434CEA010C3B
:1002D00049084FEA300092185B4150EA0107EDD11E
:1002E00052EA030012D082EA040083EA05010843BF
:1002F00005D0101BAB4106D20122002306E00022EC
:100300004FF0004302E06FF0010253101AEB0600B9
:100310004CEB085110EB0A0041EB0B01BDE8F04D2E
:1003200000F083B80EB5C10F80EAE0700844CA0738
:10033000002140F233438DE80E000A460B4600F0E0
:1003400083F803B000BD01F0004330B421F0004158
:1003500050EA010206D00A0DA2F56072C1F3130142
:10036000002A02DC30BC00207047440F44EAC1047C
:10037000C100E01830BC00EBC25000F01FB8202ACA
:1003800004DB203A00FA02F1002070479140C2F1EC
:10039000200320FA03F3194390407047202A04DB1E
:1003A000203A21FA02F00021704721FA02F3D040EE
:1003B000C2F1200291400843194670470029A8BFA6
:1003C0007047401C490008BF20F00100704710B47E
:1003D000B0FA80FC00FA0CF050EA010404BF10BC33
:1003E000704749B1CCF1200421FA04F411FA0CF160
:1003F00018BF012121430843A3EB0C01CB1D4FEA99
:1004000000614FEA102042BF002010BC704700EB93
:10041000C35010440029A4BF10BC7047401C4900C1
:1004200008BF20F0010010BC704710B5141E73F116
:10043000000408DA401C41F1000192185B411A43A4
:1004400001D120F0010010BD2DE9F04D92469B46F0
:1004500011B1B1FA81F202E0B0FA80F22032904696
:10046000FFF78DFF04460F4640EA0A0041EA0B0100
:1004700053465A46084313D0114653EA010019D097
:10048000C8F140025046FFF789FF05460E46504628
:1004900059464246FFF773FF084305D0012004E0A8
:1004A00020463946BDE8F08D0020054346EAE07657
:1004B0002C4337430A986305E40AA0EB08000022A6
:1004C000FD0A44EA47540A3002D500200146E9E714
:1004D000010510196941DDE9084500196941BDE8C8
:1004E000F04DA2E7064C074D06E0E06840F001033E
:1004F00094E8070098471034AC42F6D3FFF748FE63
:100500006828000888280008FEE7000008B50021D8
:100510004FEA0D0210F821305354491C0329F9DD2C
:100520009DED000A08BD0000014800F075B800000C
:10053000C401002001681823CAB2103AB2FBF3F2DA
:10054000054B6FF30901032A9B5CC36500D9091DA4
:1005500081650846704700004828000810B501462C
:1005600000208B698A6A4FF0C07453B1B3F5005F05
:1005700015D072B1012A0CD0022A0AD0032A09D15F
:1005800004E01AB1012A06D0022A03D1C96AC901BE
:1005900000D5012010BDC96AA142FAD010BD002AC1
:1005A000F7D0012AF2D0022AF3D0032AF3D010BDEB
:1005B00030B50468256825F48025256004686360EB
:1005C0008368402B036803D099600068C26030BD27
:1005D0009A600068C16030BD704710B54FF400608C
:1005E00000F08CF9BDE810404FF4805000F086B95F
:1005F000704790F83510022903D080214165012011
:100600007047052180F835100068016821F001016C
:1006100001600020704700002DE9F84304464FF0C8
:100620000009CDF8009063484FF41651A56D00689D
:10063000B0FBF1F72E6894F85C10082000FA01F185
:1006400031420FD021680A6852070BD50A6822F0A0
:1006500004020A6094F85C108840A860606D40F065
:100660000100606594F85C104FF0010808FA01F091
:10067000304208D021684969090604D5A860606D38
:1006800040F00200606594F85C100420884030421D
:1006900008D021680968890704D5A860606D40F01A
:1006A0000400606594F85C1010208840304218D037
:1006B00021680968090714D5A86020680168490302
:1006C00004D50068000308D5A16C07E00168C905DE
:1006D00003D4016821F008010160216C09B12046B2
:1006E000884794F85C1020208840304231D021683F
:1006F0000968C9062DD5A86094F83500052820683A
:10070000016806D0490347D5006800031DD4616C19
:100710001CE021F0160101602068416921F0800190
:100720004161206C08B9A06C20B12068016821F0FB
:100730000801016094F85C103F208840A86084F8AC
:10074000349084F83580216D1FE0E16B09B12046BB
:100750008847606D00282BD0606DC00714D005203D
:1007600084F835002068016821F0010101600098DB
:10077000401C0090B84203D820680068C007F6D13A
:1007800084F8349084F83580E16C002910D001B0F1
:100790002046BDE8F04308470168C905D5D4016883
:1007A00021F01001016084F8349084F83580CCE7A2
:1007B000BDE8F883700000202DE9F041044600F008
:1007C0008BF906465CB1002584F83450022084F889
:1007D00035002068016821F0010101600DE0012071
:1007E000BDE8F08100F078F9801B052805D92020AC
:1007F0006065032084F83500F2E720680068C007D0
:10080000F0D12268116820480140D4E9010318435F
:10081000D4E903363343184363691843A369184383
:10082000E3691843236A18430843616A042903D122
:10083000D4E90B1319430843106020684069666AC5
:1008400020F0070130460E43012704280CD1A06A8E
:100850000643E06A40B12046FFF780FE20B1402009
:10086000606584F83570BAE7206846612046FFF776
:1008700061FE94F85C203F2191408160656584F8B9
:1008800035700020ACE700003F8010F02DE9F0410A
:100890000446866D90F83400002501280DD0012013
:1008A00084F8340094F835700020012F07D084F8C4
:1008B000340002252846BDE8F0810220FBE702272C
:1008C00084F8357060652046FFF772FE94F85C107E
:1008D0003F208840B0602068016841F01601016047
:1008E000206C20B12068016841F008010160206897
:1008F000016841F001010160DCE77047044910B56F
:100900000A68024202D00860FFF7F7FF10BD00003E
:10091000143C01402DE9F84F00224FF00108032557
:100920004FF00F0E0B6808FA02F42340A3426ED179
:100930004E68012E05D0022E03D0112E01D0122EAA
:1009400012D186684FEA420C05FA0CF7BE43CF6815
:1009500007FA0CF7374387604668A6430C79C4F35F
:100960000014944034434460C668570005FA07FCFD
:100970008C6826EA0C06BC403443C4604C68022CE8
:1009800001D0122C13D1D40800EB8404A346D4F870
:10099000209054074FEAD46A0EFA0AF629EA0609AB
:1009A0000E6906FA0AF646EA0906CBF820600668E0
:1009B0000C7926EA0C0604F00304BC4034430460BE
:1009C0004C68E40065D5364C266846F480462660BF
:1009D000246822F0030604F480440094314C34442B
:1009E000A446D4F808489607370F0EFA07F6B44322
:1009F0002D4EB04201D1002624E02C4EB04201D150
:100A000001261FE02A4EB04202D102261AE040E041
:100A1000284EB04201D1032614E0274EB04201D146
:100A200004260FE0254EB04201D105260AE0244EEF
:100A3000B04201D1062605E0224EB04201D1072680
:100A400000E00826BE402643CCF808681E4E3468F5
:100A50004F689C43FF0300D51C4334601A4C241D8F
:100A600026684F689E43BF0300D51E432660164E7E
:100A7000083634684F689C43FF0200D51C4334603D
:100A8000114E0C3634684F689C43BF0200D51C439E
:100A90003460521C102AFFF445AFBDE8F88F000007
:100AA000443802400030014000000240000402408F
:100AB00000080240000C02400010024000140240F6
:100AC00000180240001C0240003C01400AB1816154
:100AD00070470904FBE70000014880687047000088
:100AE00064000020024881680278114481607047E8
:100AF000640000200B4810B5016841F400710160EA
:100B0000016841F480610160016841F48071016015
:100B1000032000F06FF8002000F006F800F024F841
:100B2000002010BD003C024070B50D4D04464FF44E
:100B30007A712878B1FBF0F00A490968B1FBF0F04E
:100B400000F002FB48B9102C07D200222146501EAB
:100B500000F030F800206C6070BD012070BD000016
:100B600064000020700000200A4808B5016841F4C4
:100B700080410160006800F4804000900548001F3B
:100B8000016841F080510160006800F080500090E1
:100B900008BD000044380240002809DB00F01F02B5
:100BA000012191404009800000F1E020C0F80011CF
:100BB00070470000F0B40E4B1B680C46C3F30223D1
:100BC000C3F10705042D00D90425191D072901D2F9
:100BD000002300E0DB1E012606FA05F1491E214034
:100BE00099409E40761E16403143F0BC01F092BD04
:100BF0000CED00E0064900F0070208684FF6FF031D
:100C0000184040EA0220034A104308607047000081
:100C10000CED00E00000FA052DE9F0470E46050056
:100C200065D0DFF81481D8F80000F7B200F00F00AB
:100C3000B04207D288F80070D8F8000000F00F002A
:100C4000B04254D128683D4C810712D5400703D5E6
:100C5000206840F4E05020602878000703D5206821
:100C600040F4604020602068A96820F0F00008434C
:100C700020602878C0072DD03049686808390128DD
:100C800012D0022813D0032811D00968890700293F
:100C90002DDA216821F0030101432160FFF71CFFD9
:100CA000814641F2883A0EE009688903EFE7096856
:100CB0008901ECE7FFF710FFA0EB0901514502D9CC
:100CC0000320BDE8F0872068696800F00C00B0EBF5
:100CD000810FEFD1D8F80010404601F00F01B1426A
:100CE00007D90770006800F00F00B04201D0012062
:100CF000E7E72878400705D52068E96820F4E05048
:100D0000084320602878000706D52068296920F468
:100D1000604040EAC100206000F038F82168084ACD
:100D2000C1F30311515CC8400649086006480068D9
:100D3000FFF7FAFE0020C4E7003C024008380240FA
:100D40005028000870000020680000200448054971
:100D500000680968044AC1F38221515CC8407047A9
:100D60007000002008380240602800080448054947
:100D700000680968044AC1F34231515CC8407047B9
:100D8000700000200838024060280008154810B59F
:100D9000006810F00C02144813D04110042A0FD040
:100DA000082A0ED10F4C241F2268236802F03F024C
:100DB0005B0207D52068C0F38810A0FB010106E0A4
:100DC000084610BD2168C1F38811A1FB0001002372
:100DD000FFF7F6F92168C1F30141491C4900B0FB56
:100DE000F1F010BD083802400024F4002DE9F84F5E
:100DF00004006ED02078DFF83C93C007A9F1040509
:100E00004AD009F104000168C1F38101012908D029
:100E10000068C0F3810002280AD1D9F8000040021E
:100E200006D52868800337D560680028E1D033E014
:100E30006068B0F5803F10D0B0F5A02F286810D0C2
:100E400020F480302860286820F4802028606068C2
:100E5000A8B1FFF741FE06460DE0286840F4803057
:100E6000F4E740F480202860F7E700BFFFF734FE86
:100E7000801B642873D828688003F7D50CE0FFF73F
:100E80002BFE064605E000BFFFF726FE801B642808
:100E9000F0D828688003F7D42078DFF89C82800798
:100EA0004FF0000A3ED5A348001D016811F00C0F59
:100EB00008D00068C0F3810002280BD1D9F80000E7
:100EC000400207D42868800716D5E068012800D1C1
:100ED00012E02BE1E068B8B10120C8F80000FFF78C
:100EE000FBFD064605E000BFFFF7F6FD801B02286C
:100EF000C0D828688007F7D52868216920F0F80055
:100F000040EAC10028600DE0C8F800A0FFF7E4FD4A
:100F1000064604E0FFF7E0FD801B02281FD8286882
:100F20008007F7D42078000722D5824E8348616974
:100F3000703671B101210160FFF7CEFD074604E074
:100F4000FFF7CAFDC01B022809D830688007F7D513
:100F50000EE0C0F800A0FFF7BFFD074605E082E005
:100F6000FFF7BAFDC01B02287DD830688007F7D490
:100F70002078400768D5DFF8BCB100270BF13C0BA7
:100F8000DBF80000C0000BD4DBF8001041F080510A
:100F9000CBF80010DBF80000012700F08050009033
:100FA000674E3068C00510D4306840F480703060FF
:100FB000FFF792FD009005E0FFF78EFD0099401AC3
:100FC000022850D83068C005F6D55A4EA0686C3655
:100FD00001280FD00528306810D020F001003060C3
:100FE000306820F004003060A068B8B1FFF774FDED
:100FF00000900FE0306840F00100F4E740F004009A
:101000003060F7E7FFF768FD0099411A41F2883038
:10101000814266D830688007F4D50EE0FFF75CFDAA
:10102000009007E0FFF758FD0099411A41F288301F
:10103000814256D830688007F4D42FB1DBF8001015
:1010400021F08051CBF80010A069C8B33949091DBF
:101050000968C1F3810102294AD00228504607D00D
:10106000C8F8600000E03CE0FFF736FD04463BE0D6
:101070004746C8F86000FFF72FFD064605E000BFB1
:10108000FFF72AFD801B02282BD828688001F7D49F
:10109000D4E907010843A16A2A4A490802EB014141
:1010A000626A41EA8211084394F82C1040EA016117
:1010B000C9F8001001203866FFF70EFD044606E06F
:1010C00036E000BFFFF708FD001B022809D828689A
:1010D0008001F7D52CE000BFFFF7FEFC001B0228C3
:1010E00002D90320BDE8F88F28688001F4D41FE0FE
:1010F0000128F7D0D9F80000E26900F4800191429C
:1011000014D1226A00F03F0191420FD147F6C0711D
:10111000626A0140914209D1A26A00F440319142D1
:1011200004D1E16A00F07060884201D00120D9E763
:101130000020D7E70438024000004742800E4742B3
:10114000007000400000FFFF10B5401EB0F1807F2E
:1011500001D3012010BD4FF0E02460610F21601722
:1011600001F0D8FA0020A06107202061002010BD06
:101170007047704770B590F83C20012A32D00124A6
:1011800080F83C40022280F83D2003685A689D6840
:1011900022F070060A6832435A60134B02689A4282
:1011A00014D0B2F1804F11D0104B9A420ED0104B98
:1011B0009A420BD00F4B9A4208D00F4B9A4205D05F
:1011C0000E4B9A4202D00E4B9A4204D1496825F048
:1011D00080031943916080F83D40002180F83C1065
:1011E000084670BD022070BD0000014000040040B0
:1011F00000080040000C0040000401400040014095
:101200000018004010B5040003D094F83D0010B160
:1012100007E0012010BD002084F83C00204600F0CB
:101220000DF8022084F83D00211D206800F058FFD1
:10123000012084F83D00002010BD000008B5154ACB
:101240000168154891420ED1016841F00201016028
:101250000068002200F00200009011461D20FFF7F8
:10126000A9FC1D2010E00D4A914211D1016841F006
:10127000040101600068002200F0040000901146A3
:101280001E20FFF797FC1E20BDE80840FFF784BC36
:1012900008BD000000040040403802400008004043
:1012A0000168CA6842F00102CA600068816801F002
:1012B0000701062903D0016841F001010160002007
:1012C000704770B5044690F83C00012817D00125FE
:1012D00084F83C50022084F83D002068826822F0A7
:1012E000770222F47F4282600868502830D00DDCFB
:1012F00020284DD005DC98B310283BD148E00220CF
:1013000070BD302844D0402834D139E0602828D03E
:10131000702806D0B0F5805F2CD0B0F5005F29D1E1
:101320000AE0CB68D1E90121206800F04AFF20687B
:10133000816841F0770109E0CB68D1E9012120689B
:1013400000F03FFF2068816841F48041816011E036
:10135000CA684968206801F009F85021206807E050
:1013600016E0CA684968206801F011F86021206819
:1013700000F031FF84F83D50002084F83C0070BD3F
:10138000CA684968206800F0F1FF40212068EFE753
:10139000226801461046EBE72DE9F0410D460400B6
:1013A00003D094F83D0018B108E00120BDE8F081B9
:1013B000002084F83C00204600F03AF8022084F82F
:1013C0003D002068816844F2070291438160211D3D
:1013D000206800F085FE226890689169166A2B6883
:1013E000AF69034340F20330814341EA0721A86813
:1013F000EF6908434FF6FC418843E96840EA07205B
:10140000014328692F6A000140EA073008436968F0
:101410006D6926F0AA0646EA0515294393602268FD
:10142000906120680162012084F83D000020BDE742
:1014300010B586B0044614216846FEF7F9FE13493C
:101440002068884220D112480021026842F001023F
:101450000260006800F0010005900D481438026831
:1014600042F010020260006800F0100005904FF496
:1014700020600090022001900120CDE9020104903B
:1014800069460448FFF746FA06B010BD0000014067
:10149000443802400010024010B50446006891B183
:1014A000042904D00122002100F07EFE20680122E0
:1014B0005FF0040100F078FE2068016841F001014E
:1014C0000160002010BD01220021F3E7704770B5D4
:1014D0000446006801694FF00005C943890715D427
:1014E000C168C943890711D4E91E01610120207731
:1014F000206880698007204602D0FFF7E7FF04E0FC
:1015000000F0C0F8204600F05DF9257720680169F9
:10151000C943490717D4C168C943490713D46FF0B9
:1015200004010161022020772068806910F4407F67
:10153000204602D0FFF7CAFF04E000F0A3F82046DF
:1015400000F040F9257720680169C943090716D4DE
:10155000C168C943090712D46FF008010161042072
:1015600020772068C0698007204602D0FFF7AEFFD1
:1015700004E000F087F8204600F024F92577206881
:101580000169C943C90617D4C168C943C90613D440
:101590006FF010010161082020772068C06910F405
:1015A000407F204602D0FFF791FF04E000F06AF888
:1015B000204600F007F9257720680169C943C9076B
:1015C00008D1C168C943C90704D1891E01612046F9
:1015D00000F01CF920680169C943090609D4C168F3
:1015E000C943090605D46FF0800101612046FFF769
:1015F000BFFD20680169C943490609D4C168C943D0
:10160000490605D46FF040010161204600F06AF9F7
:1016100020680169C94389060BD4C168C94389069A
:1016200007D46FF0200101612046BDE87040FFF74C
:10163000A0BD70BD10B586B0044614216846FEF703
:10164000F7FD2068B0F1804F15D10C4800210268E9
:1016500042F001020260006800F0010005902020C5
:101660000090022001900120CDE90201049069461A
:101670000348FFF74FF906B010BD000030380240B4
:1016800000000240704770B5044690F83C000D46DB
:1016900001280DD0012684F83C60022084F83D002A
:1016A00042B1042A18D0082A2AD00C2A4DD139E098
:1016B000022070BD206800F097FD2068816941F02C
:1016C000080181612068816921F00401816120683D
:1016D00081692A69114311E0206800F0B5FD206896
:1016E000816941F4006181612068816921F4806130
:1016F0008161206881692A6941EA0221816124E0CF
:10170000206800F0D7FD2068C16941F00801C1617F
:101710002068C16921F00401C1612068C1692A699A
:10172000114311E0206800F0F9FD2068C16941F41F
:101730000061C1612068C16921F48061C1612068D4
:10174000C1692A6941EA0221C16184F83D60002033
:1017500084F83C0070BD10B5040003D094F83D003F
:1017600010B107E0012010BD002084F83C002046A5
:1017700000F00CF8022084F83D00211D206800F0E4
:10178000AFFC012084F83D00002010BD08B50068C2
:10179000B0F1804F12D10A48016841F001010160A7
:1017A0000068002200F00100009011461C20FFF7A5
:1017B00001FABDE808401C20FFF7EEB908BD0000A3
:1017C000403802407047000010B50446006801220E
:1017D00000F0EAFC0B492068884202D00A4988429E
:1017E00003D1416C41F4004141642068816801F0FB
:1017F0000701062903D0016841F0010101600020C2
:1018000010BD0000000001400004014070B52F49E8
:1018100000680968884258D12D4D686A2D4C06B27F
:1018200026806088301AA080C6EB06108000FEF784
:1018300079FD9FED291B53EC112BFEF704FDFEF7FC
:1018400082FD00EE100A002E84ED020A03DB84ED17
:10185000030A022004E0B1EE400A84ED030A0320EB
:1018600000F0D2FFD4ED030A94ED060A00F084FBE9
:10187000BCEEC00A10EE100AE08094ED050AB5EE49
:10188000C00AF1EE10FA1ED194ED040A144E4FF086
:101890000002B5EEC00AF1EE10FA06D04021304643
:1018A000FFF714F90122802105E080213046FFF77F
:1018B0000DF9012240213046FFF708F9E08803497D
:1018C0004039096848630020686270BDF400002058
:1018D0000000014000000020EC51B81E85EB3D40A7
:1018E000000802407047704770B5026804461068EF
:1018F000D168536910F00F0F52D003F0010501F4C5
:1019000090762E435FD0C20705D0CA0503D5E26B9F
:1019100042F00102E263420705D5DA0703D0E26B29
:1019200042F00202E263820705D5DA0703D0E26BD8
:1019300042F00402E263020707D501F020022A43C5
:1019400003D0E26B42F00802E263E26B002A33D07C
:10195000800604D5880602D5204600F098FD206850
:101960004069E16BC0F38010090700D428B320461A
:1019700000F076FD2068416949061AD5416921F0D9
:1019800040014161606BA0B11B490165606BFEF7CE
:1019900030FE002810D0606B016DBDE87040084734
:1019A000830610D58B060ED52046BDE8704000F0AA
:1019B0006EBD2046FFF797FF70BD2046FFF793FFEF
:1019C0000020E06370BD030606D50B0604D5204653
:1019D000BDE8704000F03ABE4006F3D54806F1D5A8
:1019E000D168204621F04001D160202184F83910CF
:1019F00000F0B0F970BD0000C123000870B504000C
:101A000004D094F83900002510B106E0012070BD23
:101A100084F83850204600F023F8242084F8390058
:101A20002068C16821F40051C160204600F07AFDB1
:101A30002068016921F4904101612068416921F029
:101A40002A0141612068C16841F40051C160E56329
:101A5000202084F8390084F83A00002070BD00008E
:101A600070B586B0064614216846FEF7E1FB2349AF
:101A70003068884240D122480025016841F40021A5
:101A80000160006800F4002005901D4810380168CE
:101A900041F0010101600068022100F001000590A1
:101AA0000320CDE900010121CDE9021008200490B6
:101AB00069461448FEF72EFF144C13482060400579
:101AC000C4E901054014C4E9035080106561C4E90C
:101AD00006504002C4E908052046FEF76DFE08B135
:101AE000FEF786FD7463002201213420A663FFF710
:101AF00061F83420FFF750F806B070BD004C00408C
:101B0000403802400000024040600240C401002012
:101B1000F8B5044690F83A0020283CD1C1B3BAB3D6
:101B200094F83800012836D0012084F83800A162EA
:101B3000A2850025E563222084F83A00636B1748EC
:101B4000D863636B16481864636B1648D864606B7F
:101B5000134605650846666B216802463046091D36
:101B6000FEF794FE206801684168009184F83850BF
:101B7000C16841F48071C1602068416941F0010190
:101B800041612068416941F0400141610020F8BD98
:101B9000FFE70120FBE70220F9E700001B24000813
:101BA00057240008D123000870B537492DED028B6A
:101BB00000680968884237D13449002001F10E05D8
:101BC0000A5C2A54401C0628FADD2878FA282BD112
:101BD000A879FB2828D1B7EE000A112000F014FEE6
:101BE0002949002011F14001C0F10502AA5C41F829
:101BF0002020401C0328F7DD23484030FEF786FCF8
:101C0000224CDFED230A4C3CB7EE008A84ED110A2A
:101C10006878072831D00ADC022821D0032824D094
:101C2000062801D184ED070ABDEC028B70BD08289F
:101C300026D009281ED01028F6D113490020C0391B
:101C400009684863134D024640212846FEF73EFFCF
:101C5000012280212846FEF739FF84ED058AE3E75B
:101C6000C4ED040A84ED060ADEE784ED060A84ED7D
:101C7000048AD9E7C4ED050AD6E784ED080AD3E75C
:101C800084ED090AD0E70000740100204C00002018
:101C9000000000000008024070472DE9F8430446A8
:101CA00090F839001F4616460D46202850D1B5B190
:101CB000AEB194F8380001284AD0012084F83800E9
:101CC0004FF00008C4F83C80212084F83900FEF76A
:101CD00003FFA6848146E68484F8388026E001204C
:101CE000BDE8F883E08C401EE084A0684B46B0F568
:101CF000805F4FF000024FF080012046009703D034
:101D000000F0D5FCE8B90DE000F0D1FCC8B9288896
:101D10002168C0F308004860206908B16D1C05E027
:101D2000AD1C03E0216815F8010B4860E08C002829
:101D3000D8D14B46002240212046009700F0B7FC46
:101D400008B10320CCE7202084F839000020C7E741
:101D50000220C5E77047FEE770B586B014216846DB
:101D6000FEF766FA27480025016841F0800101600E
:101D7000016801F080010591016841F001010160F5
:101D8000016801F001010591016841F01001016055
:101D9000016801F010010591016841F00401016042
:101DA0000068194E00F0040005900022C021304662
:101DB000FEF78CFE01244020CDE900046946304640
:101DC000CDE90245FEF7A6FD8020CDE90004022002
:101DD000CDE9020569463046FEF79CFD4FF4C05040
:101DE00000900A48CDE9010469463046FEF792FDAD
:101DF000002211462820FEF7DDFE2820FEF7CCFE4B
:101E000006B070BD303802400008024000001110DA
:101E100010B58CB024216846FEF70AFA0024134856
:101E2000099411490A94C0E90014611EC0E90241F5
:101E30000461446184610320CDE900040120CDE9FF
:101E400002040A210491CDE90540CDE90741694624
:101E50000648FFF7A1FA099409A904480A94FFF774
:101E600089F90CB010BD0000000001407400002092
:101E700010B58AB0002407941C2168460894FEF728
:101E8000D7F911484FF08041C0E9001440F28F119A
:101E9000C0E9024104618461FFF75DFC079407A972
:101EA00009480894FFF766F96020CDE90004029420
:101EB0000022694604480494FFF7E5FB0248FFF757
:101EC000B9FB0AB010BD0000B400002010B586B008
:101ED00000241248009401940294039404940E493F
:101EE0000594016041F26801C0E9011440F28F11CC
:101EF000C0E903148461FFF785F94FF48050009026
:101F000069460648FFF7DDF9049404A903480594DF
:101F1000FFF730F906B010BD00040040F4000020C7
:101F200010B586B0002412480094019402940394E2
:101F300004940E490594016040F6D811C0E90114DB
:101F4000C721C0E903148461FFF75CF94FF48050A6
:101F5000009069460648FFF7B4F9049404A90448C0
:101F60000594FFF707F906B010BD00000008004017
:101F700034010020FEE77047254870EE600AD0ED7E
:101F80000C1AC0ED0D1A90ED0E1A80ED0C1AC0ED72
:101F90000E0A90ED120A80ED0B0A90ED093A90EDD1
:101FA0000A2AD0ED073AC3EE022A30EEC13A03EE18
:101FB000830AB6EE003A22EE032A90ED083A22EEAA
:101FC000032A30EE813A02EE030AB0EE002A41EE17
:101FD000420A70EEA10A02EEA00A80ED120AD0EDCC
:101FE0000F0AB4EEE00AF1EE10FA02DCF0EE400A5D
:101FF00001E0C0ED120A90ED100AF4EEC00AF1EE15
:1020000010FA02D3B0EE600A704780ED120A7047F2
:102010000000002070477047FEF764BD30B593B0F4
:1020200030216846FEF704F914210CA8FEF700F9E8
:1020300019480025016841F080510160006800F0F6
:10204000805011901548016841F48041016000689A
:10205000022400F4804011900120009000040190BF
:102060008001CDE90640082008904FF4A870CDE922
:10207000090404200B906846FEF7B8FE0CA90F2057
:1020800081E831004FF4A0500F90109005210CA86A
:10209000FEF7C2FD13B030BD403802400070004072
:1020A0000548016841F47001016003494FF0006088
:1020B000803908607047000088ED00E00148FFF7B4
:1020C00006BA0000B40000200148FFF700BA000083
:1020D000F40000200148FFF7FAB9000034010020A5
:1020E000F0B50268254C264D264E274F274B4FF062
:1020F000804CA04209D0604507D0A84205D0B0422C
:1021000003D0B84201D0984204D122F0700E4A6840
:1021100042EA0E02A0421BD0604519D0A84217D057
:10212000B04215D0B84213D0984211D0184DA842F1
:102130000ED0184DA8420BD0174DA84208D0174D0D
:10214000A84205D0164DA84202D0164DA84203D190
:1021500022F44075CA682A434D6922F080022A435E
:1021600002608A68C2620A688262A04201D0984214
:1021700001D10969016301214161F0BD0000014005
:102180000004004000080040000C00400004014032
:102190000040014000440140004801400018004058
:1021A000001C00400020004010B501F01F03012179
:1021B000046A99408C430462016A9A4011430162A7
:1021C00010BD10B5846842EA032224F47F440A4318
:1021D0002243826010BD826822F070020A4342F0FE
:1021E0000701816070470000F0B5026A22F0010229
:1021F0000262036A42688469124E24F073050C6817
:102200002C4323F002058B682B430D4DA84201D0CF
:10221000B04205D123F00807CB683B4323F0040309
:10222000A84201D0B04205D14D6922F44072154355
:102230008A692A4342608461496841630362F0BD50
:102240000000014000040140F0B5026A22F01002D3
:102250000262026A436884690D6824F4E64444EA31
:1022600005248D6822F0200242EA05120F4D104E1F
:10227000A84201D0B04206D1CF6822F0800242EAE3
:10228000071222F04002A84201D0B04207D14D69A6
:1022900023F4406343EA85038D6943EA8503436081
:1022A0008461496881630262F0BD00000000014062
:1022B00000040140F0B5026A22F480720262026AF0
:1022C0004368C46922F4007224F073050C68124E4E
:1022D0002C438D6842EA05220E4DA84201D0B0423F
:1022E00006D1CF6822F4006242EA072222F480621B
:1022F000A84201D0B04207D14D6923F4405343EACC
:1023000005138D6943EA05134360C4614968C163DD
:102310000262F0BD000001400004014030B5026AD5
:1023200022F480520262046A4268C3690D6823F491
:10233000E64343EA05238D6824F4005444EA053457
:10234000084DA84202D0084DA84204D14D6922F49C
:10235000804242EA85124260C361496801640462B6
:1023600030BD0000000001400004014010B5036AC8
:10237000046A24F001040462846924F0F00444EA4D
:10238000021423F00A020A438461026210BD10B5F0
:10239000036A23F0100303628369046A23F4704321
:1023A00043EA023224F0A00343EA01118261016290
:1023B00010BD00000148FFF797BA0000740100202B
:1023C00010B5806B0021C185C184FFF78CFA10BD68
:1023D00070B5846B2068406994F83910C0F3C01060
:1023E0000025212904D118B1E584204600F046F8E3
:1023F0002068406994F83A10C0F38010222904D173
:1024000018B1E585204600F02BF8E06B40F0100095
:10241000E0632046FFF767FA70BD10B50146806B98
:1024200009680968C90513D40021C1850168CA6813
:1024300022F48072CA6001684A6922F001024A618E
:1024400001684A6922F040024A61202180F83A106E
:10245000FFF7AAFB10BD10B5806BFFF71DFC10BD88
:102460000168CA6822F49072CA6001684A6922F061
:1024700001024A61202180F83A1070470168CA6859
:1024800022F0C002CA60202180F83910704710B5D0
:1024900090F83A10222901D0022010BD8168B1F5D0
:1024A000805F11D00169002901681FD0496801F0DF
:1024B0007F03816A4A1C82620B70C18D491E090428
:1024C000090CC18518D02BE00269816A002A0268D4
:1024D000526805D0D2B20A80816A491C8162ECE759
:1024E000C2F308020A80816A891CF7E74A68816A98
:1024F0004B1C83620A70E0E70168CA6822F0200280
:10250000CA600168CA6822F48072CA6001684A69B8
:1025100022F001024A61202180F83A10FFF744FBC3
:10252000002010BD2DE9F041044600680169E26811
:1025300021F44051114301612169A068E269084317
:102540006169114308432168CA6849F20C639A43E0
:102550000243CA6020684169A26921F440711143B5
:102560004161E069192764253226B0F5004F354AEC
:10257000354920684FF0000806D0884201D09042CB
:1025800036D1FEF7F3FB35E0884201D0904202D10C
:10259000FEF7ECFB01E0FEF7D9FB61684A18A0FBEF
:1025A000070148EB0803FDF70BFE0146B0FBF5F011
:1025B0000201B1FBF5F06FF01803584301EB800006
:1025C00006EBC000B0FBF5F000F0F80002EB4002B3
:1025D000B1FBF5F0584301EB800006EBC000B0FB07
:1025E000F5F000F00700216810448860BDE8F08134
:1025F000FEF7ACFB61688B0F8A00A0FB0701FDF7BB
:10260000DFFD0146B0FBF5F06FF01802504301EB1F
:10261000800006EB0010B0FBF5F000F0F002B1FB1B
:10262000F5F002EB0012B1FBF5F06FF01803584320
:1026300001EB800006EB0010B0FBF5F000F00F009E
:10264000D1E70000001401400010014090F839105B
:10265000212901D0022070478168B1F5805F016AAD
:102660000BD04A1C0262026809785160C18C491E75
:102670000904090CC1840ED017E009880268C1F36F
:102680000801516001690029016A02D0491C0162F8
:10269000ECE7891CFBE70168CA6822F08002CA6087
:1026A0000068C16841F04001C160002070472DE919
:1026B000F041984617460E460446069D1DE0681CEC
:1026C0001BD02DB1FEF708FAA0EB0800A84214D9E0
:1026D0002068C16821F4D071C1602068416921F08F
:1026E00001014161202084F8390084F83A0000207B
:1026F00084F838000320BDE8F0812068006836EADD
:10270000000004D00020B842D9D00020F3E7012017
:10271000F9E7FEE70907090E002804DB00F1E020D5
:1027200080F80014704700F00F0000F1E02080F8FE
:10273000141D704702E008C8121F08C1002AFAD110
:1027400070477047002001E001C1121F002AFBD131
:10275000704708B500218DED000A6A46535C40F8C9
:102760002130491C0329F9DD08BD000008B5FEF73A
:10277000C1F9FFF753FCFFF7EFFA1E480024016888
:1027800041F4001101600068224600F4001000903E
:1027900021460D20FEF70EFA0D20FEF7FDF9FFF79A
:1027A00037FBFFF765FBFFF791FB14481249016007
:1027B0004FF4E131C0E901140C21C460C0E90441C7
:1027C0008461C461FFF71AF9FFF7AAFB3C210C48AA
:1027D000FEF762FE09488038FEF762FD07220949CC
:1027E0000648FFF795F9064800214030FEF7ECFF58
:1027F000FEE7000030380240004C00407401002029
:10280000740000204C0000201FB50D4CFA212170EF
:102810006070FB20A0716846FFF79BFF00206946AF
:10282000C0F10302231811F82220401C9A700328DB
:10283000F6DD6423072202490248FFF72EFA1FBD86
:102840005300002074010020000610160006101628
:102850000000000000000000010203040607080950
:102860000000000001020304882800080000002086
:102870007400000034270008FC28000874000020C1
:10288000B40500004427000800000000000000001C
:102890000000000000000000000000000000000038
:1028A000000000000000E040000020410AD7233C67
:1028B0000AD7A33C00000000000000000000000058
:1028C000000000000080C74300000000000000007E
:1028D00000000000000000000000000000000000F8
:1028E00000000000000000000000000001000000E7
:0C28F00010000000000000000024F400B4
:040000050800018965
:00000001FF
